:0F026D0068656C6C6F20776F726C64210D0A00EE
:10023600750C25750D807F007EC07DA87C0012019F
:1002460021E4F50EF50FE50F450E60FA7BFF7A0205
:07025600796D12000380EF37
:10025D00BF6107750E00750F0122E4F50EF50F2233
:0D027C007F057E00EF1F70011E144E70F70D
:010289002252
:100121008F0B8E0A8D098C08759850438E40538E23
:10013100FE53890FE47B04FAF9F8AF0BAE0AAD095F
:10014100AC081201F2C006C007AE0CAF0DAB07AA96
:1001510006EA3395E0F9F8D007D0061201F2EFF480
:1001610004F58BE47B04FAF9F8AF0BAE0AAD09ACE8
:10017100081201F2C006C007AE0CAF0DAB07AA060C
:10018100EA3395E0F9F8D007D0061201F2C3E49FF3
:10019100FFE49EFE74019DFDE49CFC780812003F83
:0901A1008F8DC2ABD28E020294D4
:05029400D2AFD2AC2244
:03029900C2AC22D2
:0A028A008F993099FDC29902027CA1
:10000300120026FF600C12028A740129F9E43AFAFD
:0200130080EE7D
:0100150022C8
:030023000201AA2D
:1001AA00C0E0C0F0C083C082C0D075D000C000C01B
:1001BA0001C002C003C004C005C006C007120299EC
:1001CA00309807C298AF9912025D120294D007D0F4
:1001DA0006D005D004D003D002D001D000D0D0D0B0
:0801EA0082D083D0F0D0E03296
:03000000020016E5
:0C001600787FE4F6D8FD75810F020236F9
:10002600BB010689828A83E0225002E722BBFE02D8
:09003600E32289828A83E493220B
:1001F200C2D5E830E70FB2D5E4C39BFBE49AFAE438
:1002020099F9E498F8EC30E717B2D51202281200F7
:100212008FE4C39BFBE49AFAE499F9E498F880032B
:1002220012008F30D50DE4C39FFFE49EFEE49DFDD6
:04023200E49CFC222A
:10003F00E86010ECA2E713FCED13FDEE13FEEF13D7
:04004F00FFD8F022C4
:1000530075F008758200EF2FFFEE33FECD33CDCC64
:1000630033CCC58233C5829BED9AEC99E5829840E7
:100073000CF582EE9BFEED9AFDEC99FC0FD5F0D6C4
:10008300E4CEFBE4CDFAE4CCF9A88222B800C1B9EE
:100093000059BA002DEC8BF084CFCECDFCE5F0CB2C
:1000A300F97818EF2FFFEE33FEED33FDEC33FCEB65
:1000B30033FB10D703994004EB99FB0FD8E5E4F920
:1000C300FA227818EF2FFFEE33FEED33FDEC33FC0D
:1000D300C933C910D7059BE99A4007EC9BFCE99A01
:1000E300F90FD8E0E4C9FAE4CCFB2275F010EF2F46
:1000F300FFEE33FEED33FDCC33CCC833C810D70746
:100103009BEC9AE899400AED9BFDEC9AFCE899F880
:0E0113000FD5F0DAE4CDFBE4CCFAE4C8F92213
:00000001FF
